:100000000C9473000C9490000C9490000C9490004D
:100010000C9490000C9490000C9490000C9461044B
:100020000C9490000C9490000C9490000C94900010
:100030000C9490000C9490000C9490000C94900000
:100040000C9490000C9490000C9490000C949000F0
:100050000C9490000303060309030C030F0312031F
:100060001503180307634236B79BD8A71A39685699
:1000700018AEBAAB558C1D3CB7CC5763BD6DEDFDCA
:10008000753EF6177231BF000000803F0800000087
:10009000BE922449123EABAAAA2ABECDCCCC4C3E7D
:1000A00000000080BEABAAAAAA3E00000000BF006C
:1000B0000000803F0000000000084178D3BB438768
:1000C000D1133D190E3CC3BD4282AD2B3E68EC827C
:1000D00076BED98FE1A93E4C80EFFFBE01C4FF7F01
:1000E0003F000000000011241FBECFE5D8E0DEBFB6
:1000F000CDBF10E0A0E6B0E0E4E6F4E102C0059078
:100100000D92AA37B107D9F720E0AAE7B0E001C005
:100110001D92A03CB207E1F70E94DE000C94300A69
:100120000C940000CF92DF92EF92FF926B017C0162
:1001300020E030E040EA51E40E9436078823ECF0EA
:10014000909A91980E943F0260E080E00E94BE0277
:1001500080E690E00E948B02C701B6010E94A002D7
:1001600087E690E00E948B0260E081E00E94BE0280
:100170008AE690E00E948B021CC0919A90980E949F
:100180003F0260E080E00E94BE0280E690E00E94B4
:100190008B02C701B6010E94A00287E690E00E9490
:1001A0008B0260E081E00E94BE0280E790E00E9446
:1001B0008B02FF90EF90DF90CF90089566E081E092
:1001C0000E94D6020E94000281B3836081BB909896
:1001D000919880E00E94D9020E9492002FEF83ED57
:1001E00090E3215080409040E1F700C00000F1CF43
:1001F0009B01215031091216130684F4FC01E60F0D
:10020000F71FDC0180E090E04C9152915D934083B8
:1002100001962150310982179307B4F30895EF92A4
:10022000FF920F931F93CF93DF938B019A01009757
:1002300099F0FB01C0E0D0E00F2EFAE0EF2EF12C98
:10024000F02D2196B7010E94160A805D8193862FBA
:10025000972F0097B1F702C0C0E0D0E0C217D307D4
:1002600064F4F801EC0FFD1FA801420F531F80E357
:100270008193E417F507E1F7E901BE01C8010E9487
:10028000F800F801EC0FFD1F1082CE01DF91CF9135
:100290001F910F91FF90EF9008952F923F924F92F0
:1002A0005F926F927F928F929F92AF92BF92CF9206
:1002B000DF92EF92FF920F931F93CF93DF934B0147
:1002C0005C018A01E9010E9472066B017C0140E039
:1002D00050E0B801C6010E940F011C012097A9F14E
:1002E000F801E80FF91F8EE28083BE010D2E000C8D
:1002F000880B990B0E94AA069B01AC0160E070E09C
:1003000080E291E40E94A8072B013C01B601DD0CBC
:10031000880B990B0E94AA069B01AC01C501B40190
:100320000E9405069B01AC018FEF281A380A020DC6
:10033000131DC301B2010E943B070E947206DC013B
:10034000CB01AE01B8010E940F01DF91CF911F9147
:100350000F91FF90EF90DF90CF90BF90AF909F9064
:100360008F907F906F905F904F903F902F90089567
:10037000CF93C82F40E061E081E00E94940340E009
:1003800062E081E00E94940340E063E081E00E942B
:1003900094038BB39C2F907F8F70892B8BBB41E094
:1003A00063E081E00E9494038FE99FE00197F1F7F9
:1003B00000C0000040E063E081E00E9494032BB3A2
:1003C00030E1C39FC0011124922F9F70892B8BBBFA
:1003D00041E063E081E00E9494038FE99FE0019790
:1003E000F1F700C0000040E063E081E00E94940368
:1003F0008FE39FE10197F1F700C00000CF910895CE
:1004000041E064E080E00E94230341E065E080E099
:100410000E94230341E066E080E00E94230341E064
:1004200067E080E00E94230341E061E081E00E94F8
:10043000230341E062E081E00E94230341E063E0A6
:1004400081E00E94230383E30E94B80182E30E94BB
:10045000B80188E20E94B80181E00E94B80182E000
:100460000E94B80186E00E94B8018CE00E94B801A9
:100470008FE39FE10197F1F700C00000089581E04C
:100480000E94B8010895CF93C82F41E061E081E058
:100490000E94940340E062E081E00E94940340E007
:1004A00063E081E00E9494038BB39C2F907F8F7058
:1004B000892B8BBB41E063E081E00E9494038FE9CC
:1004C0009FE00197F1F700C0000040E063E081E0A9
:1004D0000E9494032BB330E1C39FC0011124922FDB
:1004E0009F70892B8BBB41E063E081E00E94940305
:1004F0008FE99FE00197F1F700C0000040E063E062
:1005000081E00E9494038FE39FE10197F1F700C01F
:100510000000CF910895CF93DF93EC018881882369
:1005200061F021960E9443028FE39CE90197F1F765
:1005300000C0000089918111F5CFDF91CF9108951E
:10054000CF93DF93CDB7DEB72A970FB6F894DEBF0F
:100550000FBECDBF23E030E0AE014F5F5F4F0E9482
:100560004D01CE0101960E948B022A960FB6F89497
:10057000DEBF0FBECDBFDF91CF910895813049F02E
:1005800028F0823049F0833051F00CC080E8860FAB
:100590000AC080EC860F07C084E9860F04C084ED92
:1005A000860F01C080E00E94B80108950E94F50204
:1005B00008950E94FA02BC0180E090E00E94A80623
:1005C00020E030E040EA50E40E943B0720E030E0C9
:1005D00040E85AE30E943B0720E030E048EC52E458
:1005E0000E943B070E94F807089580E487B987EAD4
:1005F00086B9089590E088309105E8F4FC01E65D45
:10060000FF4F0C942A0A80E487B917C081E487B9A8
:1006100014C082E487B911C083E487B90EC084E4B2
:1006200087B90BC085E487B908C086E487B905C0DF
:1006300087E487B902C080E487B9369A349BFECF3D
:1006400084B195B10895442319F04130C9F108955A
:10065000813091F028F08230D9F0833029F108956B
:100660002AB381E090E002C0880F991F6A95E2F7F3
:10067000809582238ABB089527B381E090E002C071
:10068000880F991F6A95E2F78095822387BB0895AA
:1006900024B381E090E002C0880F991F6A95E2F7C9
:1006A0008095822384BB089521B381E090E002C04D
:1006B000880F991F6A95E2F78095822381BB089580
:1006C000813089F028F08230C9F0833011F108952B
:1006D0002AB381E090E002C0880F991F6A95E2F783
:1006E000822B8ABB089527B381E090E002C0880F77
:1006F000991F6A95E2F7822B87BB089524B381E0A6
:1007000090E002C0880F991F6A95E2F7822B84BBA4
:10071000089521B381E090E002C0880F991F6A9587
:10072000E2F7822B81BB0895442319F04130C9F1CF
:100730000895813091F028F08230D9F0833029F18A
:1007400008952BB381E090E002C0880F991F6A954D
:10075000E2F7809582238BBB089528B381E090E077
:1007600002C0880F991F6A95E2F78095822388BBA3
:10077000089525B381E090E002C0880F991F6A9523
:10078000E2F78095822385BB089522B381E090E053
:1007900002C0880F991F6A95E2F78095822382BB79
:1007A0000895813089F028F08230C9F0833011F14A
:1007B00008952BB381E090E002C0880F991F6A95DD
:1007C000E2F7822B8BBB089528B381E090E002C052
:1007D000880F991F6A95E2F7822B88BB089525B38D
:1007E00081E090E002C0880F991F6A95E2F7822BA2
:1007F00085BB089522B381E090E002C0880F991F65
:100800006A95E2F7822B82BB08950F920FB6F89497
:100810000F921F9211242F923F924F925F926F92EC
:100820007F928F929F92AF92BF92CF92DF92EF9280
:10083000FF920F931F932F933F934F935F936F9369
:100840007F938F939F93AF93BF93CF93DF93EF9358
:10085000FF93A091BE00B091BF000DB60D920EB6F1
:100860000D920E94800481110E949F05A091BE00FC
:10087000B091BF00CD91CDBFDD91DEBFFF91EF9173
:10088000DF91CF91BF91AF919F918F917F916F91A8
:100890005F914F913F912F911F910F91FF90EF909A
:1008A000DF90CF90BF90AF909F908F907F906F9090
:1008B0005F904F903F902F901F900F900FBE0F9022
:1008C00008950E9405041895E0918600F091870034
:1008D0008081811107C08FEF9FEF90937C00809300
:1008E0007B000895E0918600F09187000580F681F5
:1008F000E02D8081918190937C0080937B0008950E
:10090000EF92FF920F931F93CF93DF9380917A0022
:10091000811104C1C0918200D09183007E018FEFCC
:10092000E81AF80AF0928300E0928200E114F104E0
:10093000B9F48091860090918700209184003091D5
:1009400085003093870020938600909385008093E4
:10095000840080917D008F5F80937D000E946404FD
:1009600080917B0090917C00E816F90610F480E0FD
:10097000B9C080E061E0E0918600F091870090814D
:10098000911107C02FEF3FEF30937C0020937B0045
:10099000A9C0E0918600F09187000580F681E02DE6
:1009A0000680F781E02D22813381E216F30628F4D8
:1009B00030937C0020937B0095C0A285B385248171
:1009C000358146815781E9015D834C8326813781DA
:1009D00044815581E9015B834A83AF014E5F5F4FDC
:1009E00011962D913C9112972417350731F42681E9
:1009F000378112963C932E931197138612869C9101
:100A000091509C93A489B589109719F12685378553
:100A100000891189E9011D830C83208931890685AC
:100A20001785E9011B830A8311960D911C9112977A
:100A30009F01245F3F4F0217130731F4208931894A
:100A400012963C932E931197158A148A9C9191507B
:100A50009C93268990918100921710F42093810035
:100A600030E0D901AA0FBB1FAA0FBB1FAA0FBB1FE3
:100A70002A0F3B1FD901A857BF4F11960D90BC916B
:100A8000A02DB583A48314962D913C91159737839F
:100A9000268314962D913C911597E9015B834A8337
:100AA00015965C934E931497A689B0E09D01220F92
:100AB000331F220F331F220F331FA20FB31FA8575C
:100AC000BF4FB387A2879C919F5F9C93A091BE006C
:100AD000B091BF00268956969C91921708F04BCF93
:100AE000862F49CFE091BE00F091BF00268930E00B
:100AF000F901EE0FFF1FEE0FFF1FEE0FFF1F2E0F6E
:100B00003F1FF901E857FF4F9081923008F081E0D4
:100B100090917E00992361F081E00AC080917F006E
:100B20009091800001969093800080937F0080E0F8
:100B3000DF91CF911F910F91FF90EF9008958091D9
:100B40007A00882321F081E080937E00089510923E
:100B50007E0020918100822F90E0FC01EE0FFF1FAC
:100B6000EE0FFF1FEE0FFF1FE80FF91FE857FF4FB3
:100B70003081311111C02150822F90E0FC01EE0F25
:100B8000FF1FEE0FFF1FEE0FFF1FE80FF91FE857C3
:100B9000FF4F3081332379F3AC01440F551F440FCD
:100BA000551F440F551F480F591FDA01A857BF4F53
:100BB0001196ED91FC9112970280F381E02D12962F
:100BC000FC93EE93119745575F4FE417F50729F40F
:100BD00042815381FD0152834183FC01EE0FFF1FCF
:100BE000EE0FFF1FEE0FFF1F8E0F9F1FFC01E85738
:100BF000FF4F0180F281E02D868197819093BF00A5
:100C00008093BE002093810008955058BB27AA27E7
:100C10000E941D060C94FC060E94EE0638F00E940D
:100C2000F50620F039F49F3F19F426F40C94EB06F6
:100C30000EF4E095E7FB0C94E506E92F0E940D0702
:100C400058F3BA17620773078407950720F079F401
:100C5000A6F50C942F070EF4E0950B2EBA2FA02DBD
:100C60000B01B90190010C01CA01A0011124FF2759
:100C7000591B99F0593F50F4503E68F11A16F04054
:100C8000A22F232F342F4427585FF3CF4695379553
:100C90002795A795F0405395C9F77EF41F16BA0B18
:100CA000620B730B840BBAF09150A1F0FF0FBB1FC6
:100CB000661F771F881FC2F70EC0BA0F621F731F0F
:100CC000841F48F4879577956795B795F7959E3F6C
:100CD00008F0B0CF9395880F08F09927EE0F9795FD
:100CE000879508950E9479066894B1110C94300795
:100CF00008950E94150788F09F5798F0B92F9927FB
:100D0000B751B0F0E1F0660F771F881F991F1AF0F6
:100D1000BA95C9F714C0B13091F00E942F07B1E025
:100D200008950C942F07672F782F8827B85F39F024
:100D3000B93FCCF3869577956795B395D9F73EF48F
:100D400090958095709561957F4F8F4F9F4F089537
:100D5000E89409C097FB3EF4909580957095619555
:100D60007F4F8F4F9F4F9923A9F0F92F96E9BB270B
:100D70009395F695879577956795B795F111F8CF87
:100D8000FAF4BB0F11F460FF1BC06F5F7F4F8F4FF2
:100D90009F4F16C0882311F096E911C0772321F0E8
:100DA0009EE8872F762F05C0662371F096E8862F80
:100DB00070E060E02AF09A95660F771F881FDAF7D7
:100DC000880F9695879597F9089597F99F6780E81A
:100DD00070E060E008959FEF80EC089500240A948D
:100DE0001616170618060906089500240A94121606
:100DF0001306140605060895092E0394000C11F439
:100E0000882352F0BB0F40F4BF2B11F460FF04C0E5
:100E10006F5F7F4F8F4F9F4F089557FD9058440F3E
:100E2000551F59F05F3F71F04795880F97FB991F49
:100E300061F09F3F79F08795089512161306140606
:100E4000551FF2CF4695F1DF08C016161706180693
:100E5000991FF1CF86957105610508940895E8946E
:100E6000BB2766277727CB0197F908950E9456087C
:100E700008F48FEF08950E944E070C94FC060E9420
:100E8000EE0638F00E94F50620F0952311F00C9440
:100E9000E5060C94EB0611240C9430070E940D0714
:100EA00070F3959FC1F3950F50E0551F629FF001BD
:100EB000729FBB27F00DB11D639FAA27F00DB11DD6
:100EC000AA1F649F6627B00DA11D661F829F22275F
:100ED000B00DA11D621F739FB00DA11D621F839FE6
:100EE000A00D611D221F749F3327A00D611D231FBC
:100EF000849F600D211D822F762F6A2F11249F570A
:100F000050409AF0F1F088234AF0EE0FFF1FBB1F0C
:100F1000661F771F881F91505040A9F79E3F5105CB
:100F200080F00C94E5060C9430075F3FE4F3983EA4
:100F3000D4F3869577956795B795F795E7959F5F75
:100F4000C1F7FE2B880F911D9695879597F9089507
:100F5000FA01EE0FFF1F309621053105A1F1611551
:100F6000710561F48038BFE39B0749F168949038BC
:100F7000810561F08038BFEF9B0741F099234AF566
:100F8000FF3FE1053105210519F1E8940894E79543
:100F9000D901AA2329F4AB2FBE2FF85FD0F310C0DC
:100FA000FF5F70F4A695E0F7F73950F019F0FF3ABB
:100FB00038F49F779F930DD00F9007FC90580895B9
:100FC00046F00C94EB0660E070E080E89FE3089543
:100FD0004FE79F775F934F933F932F930E9414099E
:100FE0002F913F914F915F910E943B070C942408F1
:100FF0000E941507E8F09E37E8F09639B8F49E385D
:1010000048F4672F782F8827985FF9CF86957795D2
:10101000679593959539D0F3B62FB1706B0F711D0D
:10102000811D20F487957795679593950C947A08A0
:101030000C9495080C94300729F416F00C94E506EE
:101040000C942F070C94EB060E941507A8F3963812
:10105000A0F707F80F92E8942BE33AEA48EB5FE732
:101060000E9451070F920F920F924DB75EB70F92E9
:101070000E945C09E4E6F0E00E94A3084F915F91B2
:10108000EF91FF91E595EE1FFF1F49F0FE57E068D5
:101090004427EE0F441FFA95E1F74195550B0E9446
:1010A000D6080F9007FE0C94CA080895990F0008FF
:1010B000550FAA0BE0E8FEEF16161706E807F9072A
:1010C000C0F012161306E407F50798F0621B730BC5
:1010D000840B950B39F40A2661F0232B242B252B46
:1010E00021F408950A2609F4A140A6958FEF811DE9
:1010F000811D0895882371F4772321F09850872B60
:10110000762F07C0662311F499270DC09051862BC6
:1011100070E060E02AF09A95660F771F881FDAF773
:10112000880F9695879597F908959F3F31F09150D4
:1011300020F4879577956795B795880F911D9695BB
:10114000879597F90895DF93CF931F930F93FF929D
:10115000EF92DF927B018C01689406C0DA2EEF01DA
:101160000E944E07FE01E894A59125913591459185
:101170005591A6F3EF010E941D06FE019701A801FB
:10118000DA9469F7DF90EF90FF900F911F91CF9164
:10119000DF9108959B01AC0160E070E080E89FE37F
:1011A0000C9490090C94E5060C9495080E94150780
:1011B000D8F39923C9F3940F511DA3F391505040D4
:1011C00094F059F0882332F0660F771F881F9150F2
:1011D0005040C1F79E3F51052CF7880F911D969501
:1011E000879597F908955F3FACF0983E9CF0BB2738
:1011F000869577956795B79508F4B1609395C1F793
:10120000BB0F58F711F460FFE8CF6F5F7F4F8F4F30
:101210009F4FE3CF0C94300716F00C9495080C9474
:10122000EB0668940C94E5060E941507A8F3992331
:10123000C1F3AEF3DF93CF931F930F93FF92C92FA8
:10124000DD2788232AF02197660F771F881FDAF79A
:1012500020E030E040E85FEB9FE3883920F0803EFB
:1012600038F021968F770E940606ECE8F0E004C083
:101270000E940606E9EBF0E00E94A3088B01BE0184
:10128000EC01FB2E6F5771097595771F880B990B31
:101290000E94AA0628E132E741E35FE30E944E077D
:1012A000AF2D9801AE01FF900F911F91CF91DF916B
:1012B0000E941D060C94FC06FA01DC01AA0FBB1F5C
:1012C0009B01AC01BF5728F42227332744275078CD
:1012D00020C0B75190F4AB2F002446953795279541
:1012E000011CA395D2F3002071F0220F331F441F7D
:1012F000B395DAF30ED00C94050661307105A0E8C1
:101300008A07B94630F49B01AC0166277727882706
:101310009078309621F0208331834283538308955F
:101320000E94A4090C94FC060E94F50658F00E9445
:10133000EE0640F029F45F3F29F00C94E5065111C8
:101340000C9430070C94EB060E940D0768F3992368
:10135000B1F3552391F3951B550BBB27AA276217B1
:101360007307840738F09F5F5F4F220F331F441FBE
:10137000AA1FA9F335D00E2E3AF0E0E832D09150F2
:101380005040E695001CCAF72BD0FE2F29D0660FDF
:10139000771F881FBB1F261737074807AB07B0E822
:1013A00009F0BB0B802DBF01FF2793585F4F3AF028
:1013B0009E3F510578F00C94E5060C9430075F3F92
:1013C000E4F3983ED4F3869577956795B795F795AE
:1013D0009F5FC9F7880F911D9695879597F9089596
:1013E000E1E0660F771F881FBB1F62177307840732
:1013F000BA0720F0621B730B840BBA0BEE1F88F741
:10140000E0950895AA1BBB1B51E107C0AA1FBB1F93
:10141000A617B70710F0A61BB70B881F991F5A9580
:10142000A9F780959095BC01CD01089597FB072EF3
:1014300016F4009407D077FD09D00E94020A07FC39
:1014400005D03EF4909581959F4F089570956195D4
:101450007F4F0895EE0FFF1F0590F491E02D099442
:04146000F894FFCF2E
:1014640054656D703A20002043004143204F4E00E4
:0A147400484541544552204F4E00F8
:00000001FF
